:060000000A128A11122809
:10000800FE00030EF4000408F5000A08F600831247
:1000180003137F08F7000A128A111D280A128A1191
:100028001528F001F101F201F30183010A128A1186
:100038004A289D3081000130F0070318F10A00308A
:10004800F1077108803AFF0080307F02031D2E28D7
:10005800C7307002031C3C280130F2070318F30A6A
:100068000030F3077208831203138600F001F101D0
:100078000B11770883120313FF0076088A007508AE
:100088008400740E8300FE0E7E0E0900083083166D
:1000980003138F008316031788018901831603133E
:1000A800850186010A128A115E200A128A110B162E
:1000B8008B175D2807308316031381048112811181
:0400C8008B1608008B
:04400E00E2E0FFFEEF
:00000001FF
