:100000000A128A11FC2F00308A000408840A820731
:10001000003448346F346C34613420340D340A3485
:020020000034AA
:100F6200F000831203130C1EB22F700899000800C0
:100F72000830831603138F000A128A11CB270A1234
:100F82008A110B178B1701300A128A11E0270A12F5
:100F92008A11C42F8316031318118316031787119E
:100FA200831603139A0120309900181218130C1695
:100FB2008312031398178316031398160800F4007C
:100FC2007030F1007108F2000130F407FF3074074D
:100FD20084000A128A1103200A128A11F100710890
:100FE200F300F3080319080073080A128A11B127E3
:0E0FF2000A128A11E52F83010A128A11B92F03
:04400E00E2E0FFFEEF
:00000001FF
